{"abi":[{"type":"constructor","inputs":[],"stateMutability":"nonpayable"},{"type":"function","name":"autoCleanup","inputs":[],"outputs":[],"stateMutability":"nonpayable"},{"type":"function","name":"cancelSubscription","inputs":[{"name":"planName","type":"string","internalType":"string"}],"outputs":[],"stateMutability":"nonpayable"},{"type":"function","name":"checkSubscription","inputs":[{"name":"planName","type":"string","internalType":"string"}],"outputs":[{"name":"","type":"tuple","internalType":"struct EtherSub.Subscription","components":[{"name":"subscriber","type":"address","internalType":"address"},{"name":"planName","type":"string","internalType":"string"},{"name":"amountPaid","type":"uint256","internalType":"uint256"},{"name":"startTime","type":"uint256","internalType":"uint256"},{"name":"duration","type":"uint256","internalType":"uint256"}]},{"name":"timeLeft","type":"uint256","internalType":"uint256"}],"stateMutability":"view"},{"type":"function","name":"createFeature","inputs":[{"name":"featureId","type":"string","internalType":"string"},{"name":"name","type":"string","internalType":"string"},{"name":"description","type":"string","internalType":"string"}],"outputs":[],"stateMutability":"nonpayable"},{"type":"function","name":"createPlan","inputs":[{"name":"name","type":"string","internalType":"string"},{"name":"amountInUsd","type":"uint256","internalType":"uint256"},{"name":"planFeatureIds","type":"string[]","internalType":"string[]"}],"outputs":[],"stateMutability":"nonpayable"},{"type":"function","name":"featureIds","inputs":[{"name":"","type":"uint256","internalType":"uint256"}],"outputs":[{"name":"","type":"string","internalType":"string"}],"stateMutability":"view"},{"type":"function","name":"features","inputs":[{"name":"","type":"string","internalType":"string"}],"outputs":[{"name":"featureId","type":"string","internalType":"string"},{"name":"name","type":"string","internalType":"string"},{"name":"description","type":"string","internalType":"string"}],"stateMutability":"view"},{"type":"function","name":"getEthAmountFromUsd","inputs":[{"name":"usdAmount","type":"uint256","internalType":"uint256"}],"outputs":[{"name":"","type":"uint256","internalType":"uint256"}],"stateMutability":"view"},{"type":"function","name":"getFeature","inputs":[{"name":"featureId","type":"string","internalType":"string"}],"outputs":[{"name":"","type":"tuple","internalType":"struct EtherSub.Feature","components":[{"name":"featureId","type":"string","internalType":"string"},{"name":"name","type":"string","internalType":"string"},{"name":"description","type":"string","internalType":"string"}]}],"stateMutability":"view"},{"type":"function","name":"getLatestPrice","inputs":[],"outputs":[{"name":"","type":"uint256","internalType":"uint256"}],"stateMutability":"view"},{"type":"function","name":"getPlanDetails","inputs":[{"name":"planName","type":"string","internalType":"string"}],"outputs":[{"name":"name","type":"string","internalType":"string"},{"name":"amountPerMonth","type":"uint256","internalType":"uint256"},{"name":"featureIds","type":"string[]","internalType":"string[]"},{"name":"planFeatures","type":"tuple[]","internalType":"struct EtherSub.Feature[]","components":[{"name":"featureId","type":"string","internalType":"string"},{"name":"name","type":"string","internalType":"string"},{"name":"description","type":"string","internalType":"string"}]}],"stateMutability":"view"},{"type":"function","name":"getSubscriptionCost","inputs":[{"name":"planName","type":"string","internalType":"string"},{"name":"duration","type":"uint8","internalType":"uint8"}],"outputs":[{"name":"ethCost","type":"uint256","internalType":"uint256"},{"name":"usdCost","type":"uint256","internalType":"uint256"}],"stateMutability":"view"},{"type":"function","name":"getSubscriptionStatus","inputs":[{"name":"user","type":"address","internalType":"address"},{"name":"planName","type":"string","internalType":"string"}],"outputs":[{"name":"active","type":"bool","internalType":"bool"},{"name":"timeLeft","type":"uint256","internalType":"uint256"},{"name":"amountPaid","type":"uint256","internalType":"uint256"}],"stateMutability":"view"},{"type":"function","name":"getUserActiveSubscriptions","inputs":[{"name":"user","type":"address","internalType":"address"}],"outputs":[{"name":"activePlanNames","type":"string[]","internalType":"string[]"},{"name":"timesLeft","type":"uint256[]","internalType":"uint256[]"}],"stateMutability":"view"},{"type":"function","name":"hasActiveSubscription","inputs":[{"name":"user","type":"address","internalType":"address"}],"outputs":[{"name":"","type":"bool","internalType":"bool"}],"stateMutability":"view"},{"type":"function","name":"owner","inputs":[],"outputs":[{"name":"","type":"address","internalType":"address"}],"stateMutability":"view"},{"type":"function","name":"planNames","inputs":[{"name":"","type":"uint256","internalType":"uint256"}],"outputs":[{"name":"","type":"string","internalType":"string"}],"stateMutability":"view"},{"type":"function","name":"plans","inputs":[{"name":"","type":"string","internalType":"string"}],"outputs":[{"name":"name","type":"string","internalType":"string"},{"name":"amountPerMonth","type":"uint256","internalType":"uint256"}],"stateMutability":"view"},{"type":"function","name":"s_priceFeed","inputs":[],"outputs":[{"name":"","type":"address","internalType":"contract AggregatorV3Interface"}],"stateMutability":"view"},{"type":"function","name":"subscribe","inputs":[{"name":"planName","type":"string","internalType":"string"},{"name":"durationOption","type":"uint8","internalType":"uint8"},{"name":"maxSlippage","type":"uint8","internalType":"uint8"}],"outputs":[],"stateMutability":"payable"},{"type":"function","name":"subscriptions","inputs":[{"name":"","type":"address","internalType":"address"},{"name":"","type":"string","internalType":"string"}],"outputs":[{"name":"subscriber","type":"address","internalType":"address"},{"name":"planName","type":"string","internalType":"string"},{"name":"amountPaid","type":"uint256","internalType":"uint256"},{"name":"startTime","type":"uint256","internalType":"uint256"},{"name":"duration","type":"uint256","internalType":"uint256"}],"stateMutability":"view"},{"type":"function","name":"viewFeatures","inputs":[],"outputs":[{"name":"","type":"tuple[]","internalType":"struct EtherSub.Feature[]","components":[{"name":"featureId","type":"string","internalType":"string"},{"name":"name","type":"string","internalType":"string"},{"name":"description","type":"string","internalType":"string"}]}],"stateMutability":"view"},{"type":"function","name":"viewPlans","inputs":[],"outputs":[{"name":"","type":"tuple[]","internalType":"struct EtherSub.Plan[]","components":[{"name":"name","type":"string","internalType":"string"},{"name":"amountPerMonth","type":"uint256","internalType":"uint256"},{"name":"allowedFeatures","type":"string[]","internalType":"string[]"}]}],"stateMutability":"view"},{"type":"function","name":"withdraw","inputs":[],"outputs":[],"stateMutability":"nonpayable"},{"type":"event","name":"Cancelled","inputs":[{"name":"user","type":"address","indexed":true,"internalType":"address"},{"name":"planName","type":"string","indexed":false,"internalType":"string"},{"name":"refund","type":"uint256","indexed":false,"internalType":"uint256"}],"anonymous":false},{"type":"event","name":"PlanCreated","inputs":[{"name":"planName","type":"string","indexed":false,"internalType":"string"},{"name":"price","type":"uint256","indexed":false,"internalType":"uint256"}],"anonymous":false},{"type":"event","name":"Subscribed","inputs":[{"name":"user","type":"address","indexed":true,"internalType":"address"},{"name":"planName","type":"string","indexed":false,"internalType":"string"},{"name":"amount","type":"uint256","indexed":false,"internalType":"uint256"}],"anonymous":false},{"type":"event","name":"Withdrawn","inputs":[{"name":"owner","type":"address","indexed":true,"internalType":"address"},{"name":"amount","type":"uint256","indexed":false,"internalType":"uint256"}],"anonymous":false}],"bytecode":{"object":"0x60a060405234801561000f575f5ffd5b503373ffffffffffffffffffffffffffffffffffffffff1660808173ffffffffffffffffffffffffffffffffffffffff168152505073694aa1769357215de4fac081bf1f309adc3253065f5f6101000a81548173ffffffffffffffffffffffffffffffffffffffff021916908373ffffffffffffffffffffffffffffffffffffffff1602179055506080516149c76100c45f395f81816106f6015281816116c00152818161283401526129e301526149c75ff3fe60806040526004361061014a575f3560e01c80639b6ac566116100b5578063ca80c0291161006e578063ca80c029146104b8578063e97a3f43146104f4578063eb46988c14610532578063eb8679c71461055a578063f7cccd5114610582578063ffd7db56146105bf5761014a565b80639b6ac56614610397578063a6e7ae19146103ad578063af6c0b64146103d7578063b4a5dc6514610414578063bcc7a2191461043c578063bebe4a571461047c5761014a565b80636248c8c4116101075780636248c8c41461024e578063630ef0091461028c5780637f71bc3a146102c85780638da5cb5b146103075780638de2f003146103315780638e15f4731461036d5761014a565b80630ec3b0271461014e5780632875b866146101785780633ccfd60b146101b557806342440dc5146101cb57806348e9807f146101e75780634d05513414610211575b5f5ffd5b348015610159575f5ffd5b506101626105fb565b60405161016f9190612fca565b60405180910390f35b348015610183575f5ffd5b5061019e60048036038101906101999190613130565b61061f565b6040516101ac9291906131ef565b60405180910390f35b3480156101c0575f5ffd5b506101c96106dd565b005b6101e560048036038101906101e09190613253565b610886565b005b3480156101f2575f5ffd5b506101fb610bc1565b60405161020891906134e0565b60405180910390f35b34801561021c575f5ffd5b5061023760048036038101906102329190613500565b610ee0565b60405161024592919061355a565b60405180910390f35b348015610259575f5ffd5b50610274600480360381019061026f9190613130565b610fec565b60405161028393929190613581565b60405180910390f35b348015610297575f5ffd5b506102b260048036038101906102ad91906135f5565b6111bc565b6040516102bf9190613620565b60405180910390f35b3480156102d3575f5ffd5b506102ee60048036038101906102e99190613130565b611262565b6040516102fe94939291906137d9565b60405180910390f35b348015610312575f5ffd5b5061031b6116be565b6040516103289190613851565b60405180910390f35b34801561033c575f5ffd5b50610357600480360381019061035291906135f5565b6116e2565b6040516103649190613620565b60405180910390f35b348015610378575f5ffd5b50610381611788565b60405161038e919061386a565b60405180910390f35b3480156103a2575f5ffd5b506103ab611866565b005b3480156103b8575f5ffd5b506103c1611a5d565b6040516103ce9190613883565b60405180910390f35b3480156103e2575f5ffd5b506103fd60048036038101906103f891906138cd565b611cf3565b60405161040b9291906139a0565b60405180910390f35b34801561041f575f5ffd5b5061043a60048036038101906104359190613130565b612052565b005b348015610447575f5ffd5b50610462600480360381019061045d91906139d5565b612319565b604051610473959493929190613a2f565b60405180910390f35b348015610487575f5ffd5b506104a2600480360381019061049d91906138cd565b612413565b6040516104af9190613aa1565b60405180910390f35b3480156104c3575f5ffd5b506104de60048036038101906104d99190613130565b612500565b6040516104eb9190613b15565b60405180910390f35b3480156104ff575f5ffd5b5061051a600480360381019061051591906139d5565b612755565b60405161052993929190613b35565b60405180910390f35b34801561053d575f5ffd5b5061055860048036038101906105539190613b6a565b61281b565b005b348015610565575f5ffd5b50610580600480360381019061057b9190613cf0565b6129ca565b005b34801561058d575f5ffd5b506105a860048036038101906105a39190613130565b612bba565b6040516105b6929190613dfa565b60405180910390f35b3480156105ca575f5ffd5b506105e560048036038101906105e091906135f5565b612db9565b6040516105f2919061386a565b60405180910390f35b5f5f9054906101000a900473ffffffffffffffffffffffffffffffffffffffff1681565b6001818051602081018201805184825260208301602085012081835280955050505050505f91509050805f01805461065690613e55565b80601f016020809104026020016040519081016040528092919081815260200182805461068290613e55565b80156106cd5780601f106106a4576101008083540402835291602001916106cd565b820191905f5260205f20905b8154815290600101906020018083116106b057829003601f168201915b5050505050908060010154905082565b3373ffffffffffffffffffffffffffffffffffffffff167f000000000000000000000000000000000000000000000000000000000000000073ffffffffffffffffffffffffffffffffffffffff161461076b576040517f08c379a000000000000000000000000000000000000000000000000000000000815260040161076290613ef5565b60405180910390fd5b5f60149054906101000a900460ff16156107ba576040517f08c379a00000000000000000000000000000000000000000000000000000000081526004016107b190613f5d565b60405180910390fd5b60015f60146101000a81548160ff0219169083151502179055505f4790503373ffffffffffffffffffffffffffffffffffffffff166108fc8290811502906040515f60405180830381858888f1935050505015801561081b573d5f5f3e3d5ffd5b503373ffffffffffffffffffffffffffffffffffffffff167f7084f5476618d8e60b11ef0d7d3f06914655adb8793e28ff7f018d4c76d505d582604051610862919061386a565b60405180910390a2505f5f60146101000a81548160ff021916908315150217905550565b5f6001846040516108979190613fb5565b908152602001604051809103902090505f8160010154116108ed576040517f08c379a00000000000000000000000000000000000000000000000000000000081526004016108e490614015565b60405180910390fd5b60018360ff1614806109025750600c8360ff16145b610941576040517f08c379a00000000000000000000000000000000000000000000000000000000081526004016109389061407d565b60405180910390fd5b5f8360ff16826001015461095591906140c8565b9050600c8460ff160361097e576064605a8261097191906140c8565b61097b9190614136565b90505b5f61098882612db9565b90505f606485606461099a9190614166565b60ff16836109a891906140c8565b6109b29190614136565b9050803410156109f7576040517f08c379a00000000000000000000000000000000000000000000000000000000081526004016109ee9061420a565b60405180910390fd5b5f60035f3373ffffffffffffffffffffffffffffffffffffffff1673ffffffffffffffffffffffffffffffffffffffff1681526020019081526020015f2088604051610a439190613fb5565b908152602001604051809103902090505f60018860ff1614610a69576301e13380610a6e565b62278d005b63ffffffff1690505f826003015414610af7575f826003015442610a929190614228565b90505f81846004015411610aa6575f610ab7565b818460040154610ab69190614228565b5b905042846003018190555034846002015f828254610ad5919061425b565b925050819055508281610ae8919061425b565b84600401819055505050610b66565b33825f015f6101000a81548173ffffffffffffffffffffffffffffffffffffffff021916908373ffffffffffffffffffffffffffffffffffffffff16021790555088826001019081610b499190614425565b503482600201819055504282600301819055508082600401819055505b3373ffffffffffffffffffffffffffffffffffffffff167fffa5088d5660bf54f1f4d68628cc152d5cd6569854c3a92de6b47a720a12f6088a34604051610bae9291906131ef565b60405180910390a2505050505050505050565b60605f5f90505f5f90505b600280549050811015610c39575f600160028381548110610bf057610bef6144f4565b5b905f5260205f2001604051610c0591906145a1565b9081526020016040518091039020600101541115610c2c578180610c28906145b7565b9250505b8080600101915050610bcc565b505f8167ffffffffffffffff811115610c5557610c5461300c565b5b604051908082528060200260200182016040528015610c8e57816020015b610c7b612dfc565b815260200190600190039081610c735790505b5090505f5f90505f5f90505b600280549050811015610ed6575f600160028381548110610cbe57610cbd6144f4565b5b905f5260205f2001604051610cd391906145a1565b9081526020016040518091039020600101541115610ec957600160028281548110610d0157610d006144f4565b5b905f5260205f2001604051610d1691906145a1565b90815260200160405180910390206040518060600160405290815f82018054610d3e90613e55565b80601f0160208091040260200160405190810160405280929190818152602001828054610d6a90613e55565b8015610db55780601f10610d8c57610100808354040283529160200191610db5565b820191905f5260205f20905b815481529060010190602001808311610d9857829003601f168201915b505050505081526020016001820154815260200160028201805480602002602001604051908101604052809291908181526020015f905b82821015610e94578382905f5260205f20018054610e0990613e55565b80601f0160208091040260200160405190810160405280929190818152602001828054610e3590613e55565b8015610e805780601f10610e5757610100808354040283529160200191610e80565b820191905f5260205f20905b815481529060010190602001808311610e6357829003601f168201915b505050505081526020019060010190610dec565b5050505081525050838381518110610eaf57610eae6144f4565b5b60200260200101819052508180610ec5906145b7565b9250505b8080600101915050610c9a565b5081935050505090565b5f5f5f600185604051610ef39190613fb5565b908152602001604051809103902090505f816001015411610f49576040517f08c379a0000000000000000000000000000000000000000000000000000000008152600401610f4090614015565b60405180910390fd5b60018460ff161480610f5e5750600c8460ff16145b610f9d576040517f08c379a0000000000000000000000000000000000000000000000000000000008152600401610f949061407d565b60405180910390fd5b8360ff168160010154610fb091906140c8565b9150600c8460ff1603610fd9576064605a83610fcc91906140c8565b610fd69190614136565b91505b610fe282612db9565b9250509250929050565b6004818051602081018201805184825260208301602085012081835280955050505050505f91509050805f01805461102390613e55565b80601f016020809104026020016040519081016040528092919081815260200182805461104f90613e55565b801561109a5780601f106110715761010080835404028352916020019161109a565b820191905f5260205f20905b81548152906001019060200180831161107d57829003601f168201915b5050505050908060010180546110af90613e55565b80601f01602080910402602001604051908101604052809291908181526020018280546110db90613e55565b80156111265780601f106110fd57610100808354040283529160200191611126565b820191905f5260205f20905b81548152906001019060200180831161110957829003601f168201915b50505050509080600201805461113b90613e55565b80601f016020809104026020016040519081016040528092919081815260200182805461116790613e55565b80156111b25780601f10611189576101008083540402835291602001916111b2565b820191905f5260205f20905b81548152906001019060200180831161119557829003601f168201915b5050505050905083565b600581815481106111cb575f80fd5b905f5260205f20015f9150905080546111e390613e55565b80601f016020809104026020016040519081016040528092919081815260200182805461120f90613e55565b801561125a5780601f106112315761010080835404028352916020019161125a565b820191905f5260205f20905b81548152906001019060200180831161123d57829003601f168201915b505050505081565b60605f6060805f6001866040516112799190613fb5565b908152602001604051809103902090505f8160010154116112cf576040517f08c379a00000000000000000000000000000000000000000000000000000000081526004016112c690614015565b60405180910390fd5b805f0180546112dd90613e55565b80601f016020809104026020016040519081016040528092919081815260200182805461130990613e55565b80156113545780601f1061132b57610100808354040283529160200191611354565b820191905f5260205f20905b81548152906001019060200180831161133757829003601f168201915b505050505094508060010154935080600201805480602002602001604051908101604052809291908181526020015f905b8282101561142d578382905f5260205f200180546113a290613e55565b80601f01602080910402602001604051908101604052809291908181526020018280546113ce90613e55565b80156114195780601f106113f057610100808354040283529160200191611419565b820191905f5260205f20905b8154815290600101906020018083116113fc57829003601f168201915b505050505081526020019060010190611385565b505050509250825167ffffffffffffffff81111561144e5761144d61300c565b5b60405190808252806020026020018201604052801561148757816020015b611474612e1c565b81526020019060019003908161146c5790505b5091505f5f90505b83518110156116b55760048482815181106114ad576114ac6144f4565b5b60200260200101516040516114c29190613fb5565b90815260200160405180910390206040518060600160405290815f820180546114ea90613e55565b80601f016020809104026020016040519081016040528092919081815260200182805461151690613e55565b80156115615780601f1061153857610100808354040283529160200191611561565b820191905f5260205f20905b81548152906001019060200180831161154457829003601f168201915b5050505050815260200160018201805461157a90613e55565b80601f01602080910402602001604051908101604052809291908181526020018280546115a690613e55565b80156115f15780601f106115c8576101008083540402835291602001916115f1565b820191905f5260205f20905b8154815290600101906020018083116115d457829003601f168201915b5050505050815260200160028201805461160a90613e55565b80601f016020809104026020016040519081016040528092919081815260200182805461163690613e55565b80156116815780601f1061165857610100808354040283529160200191611681565b820191905f5260205f20905b81548152906001019060200180831161166457829003601f168201915b50505050508152505083828151811061169d5761169c6144f4565b5b6020026020010181905250808060010191505061148f565b50509193509193565b7f000000000000000000000000000000000000000000000000000000000000000081565b600281815481106116f1575f80fd5b905f5260205f20015f91509050805461170990613e55565b80601f016020809104026020016040519081016040528092919081815260200182805461173590613e55565b80156117805780601f1061175757610100808354040283529160200191611780565b820191905f5260205f20905b81548152906001019060200180831161176357829003601f168201915b505050505081565b5f5f5f5f9054906101000a900473ffffffffffffffffffffffffffffffffffffffff1673ffffffffffffffffffffffffffffffffffffffff1663feaf968c6040518163ffffffff1660e01b815260040160a060405180830381865afa1580156117f3573d5f5f3e3d5ffd5b505050506040513d601f19601f820116820180604052508101906118179190614684565b5050509150505f811361185f576040517f08c379a000000000000000000000000000000000000000000000000000000000815260040161185690614745565b60405180910390fd5b8091505090565b5f5f90505b600280549050811015611a5a575f6002828154811061188d5761188c6144f4565b5b905f5260205f200180546118a090613e55565b80601f01602080910402602001604051908101604052809291908181526020018280546118cc90613e55565b80156119175780601f106118ee57610100808354040283529160200191611917565b820191905f5260205f20905b8154815290600101906020018083116118fa57829003601f168201915b505050505090505f60035f3373ffffffffffffffffffffffffffffffffffffffff1673ffffffffffffffffffffffffffffffffffffffff1681526020019081526020015f208260405161196a9190613fb5565b908152602001604051809103902090505f816003015414611a4b575f8160030154426119969190614228565b905081600401548110611a495760035f3373ffffffffffffffffffffffffffffffffffffffff1673ffffffffffffffffffffffffffffffffffffffff1681526020019081526020015f20836040516119ee9190613fb5565b90815260200160405180910390205f5f82015f6101000a81549073ffffffffffffffffffffffffffffffffffffffff0219169055600182015f611a319190612e3d565b600282015f9055600382015f9055600482015f905550505b505b5050808060010191505061186b565b50565b60605f60058054905067ffffffffffffffff811115611a7f57611a7e61300c565b5b604051908082528060200260200182016040528015611ab857816020015b611aa5612e1c565b815260200190600190039081611a9d5790505b5090505f5f90505b600580549050811015611ceb57600460058281548110611ae357611ae26144f4565b5b905f5260205f2001604051611af891906145a1565b90815260200160405180910390206040518060600160405290815f82018054611b2090613e55565b80601f0160208091040260200160405190810160405280929190818152602001828054611b4c90613e55565b8015611b975780601f10611b6e57610100808354040283529160200191611b97565b820191905f5260205f20905b815481529060010190602001808311611b7a57829003601f168201915b50505050508152602001600182018054611bb090613e55565b80601f0160208091040260200160405190810160405280929190818152602001828054611bdc90613e55565b8015611c275780601f10611bfe57610100808354040283529160200191611c27565b820191905f5260205f20905b815481529060010190602001808311611c0a57829003601f168201915b50505050508152602001600282018054611c4090613e55565b80601f0160208091040260200160405190810160405280929190818152602001828054611c6c90613e55565b8015611cb75780601f10611c8e57610100808354040283529160200191611cb7565b820191905f5260205f20905b815481529060010190602001808311611c9a57829003601f168201915b505050505081525050828281518110611cd357611cd26144f4565b5b60200260200101819052508080600101915050611ac0565b508091505090565b6060805f5f90505f5f90505b600280549050811015611de0575f611db98660028481548110611d2557611d246144f4565b5b905f5260205f20018054611d3890613e55565b80601f0160208091040260200160405190810160405280929190818152602001828054611d6490613e55565b8015611daf5780601f10611d8657610100808354040283529160200191611daf565b820191905f5260205f20905b815481529060010190602001808311611d9257829003601f168201915b5050505050612755565b505090508015611dd2578280611dce906145b7565b9350505b508080600101915050611cff565b508067ffffffffffffffff811115611dfb57611dfa61300c565b5b604051908082528060200260200182016040528015611e2e57816020015b6060815260200190600190039081611e195790505b5092508067ffffffffffffffff811115611e4b57611e4a61300c565b5b604051908082528060200260200182016040528015611e795781602001602082028036833780820191505090505b5091505f5f90505f5f90505b60028054905081101561204a575f5f611f408860028581548110611eac57611eab6144f4565b5b905f5260205f20018054611ebf90613e55565b80601f0160208091040260200160405190810160405280929190818152602001828054611eeb90613e55565b8015611f365780601f10611f0d57610100808354040283529160200191611f36565b820191905f5260205f20905b815481529060010190602001808311611f1957829003601f168201915b5050505050612755565b5091509150811561203b5760028381548110611f5f57611f5e6144f4565b5b905f5260205f20018054611f7290613e55565b80601f0160208091040260200160405190810160405280929190818152602001828054611f9e90613e55565b8015611fe95780601f10611fc057610100808354040283529160200191611fe9565b820191905f5260205f20905b815481529060010190602001808311611fcc57829003601f168201915b5050505050878581518110612001576120006144f4565b5b6020026020010181905250808685815181106120205761201f6144f4565b5b6020026020010181815250508380612037906145b7565b9450505b50508080600101915050611e85565b505050915091565b5f60149054906101000a900460ff16156120a1576040517f08c379a000000000000000000000000000000000000000000000000000000000815260040161209890613f5d565b60405180910390fd5b60015f60146101000a81548160ff0219169083151502179055505f60035f3373ffffffffffffffffffffffffffffffffffffffff1673ffffffffffffffffffffffffffffffffffffffff1681526020019081526020015f20826040516121079190613fb5565b908152602001604051809103902090505f81600301540361215d576040517f08c379a0000000000000000000000000000000000000000000000000000000008152600401612154906147ad565b60405180910390fd5b5f81600301544261216e9190614228565b90505f81836004015411612182575f612193565b8183600401546121929190614228565b5b90505f83600401548285600201546121ab91906140c8565b6121b59190614136565b90505f811115612204573373ffffffffffffffffffffffffffffffffffffffff166108fc8290811502906040515f60405180830381858888f19350505050158015612202573d5f5f3e3d5ffd5b505b60035f3373ffffffffffffffffffffffffffffffffffffffff1673ffffffffffffffffffffffffffffffffffffffff1681526020019081526020015f208560405161224f9190613fb5565b90815260200160405180910390205f5f82015f6101000a81549073ffffffffffffffffffffffffffffffffffffffff0219169055600182015f6122929190612e3d565b600282015f9055600382015f9055600482015f905550503373ffffffffffffffffffffffffffffffffffffffff167f27ba5423dcdda5466a2ea69901de3bd5a7b1b1c4229427f73b9db4bcff91c00286836040516122f19291906131ef565b60405180910390a2505050505f5f60146101000a81548160ff02191690831515021790555050565b6003602052815f5260405f20818051602081018201805184825260208301602085012081835280955050505050505f9150915050805f015f9054906101000a900473ffffffffffffffffffffffffffffffffffffffff169080600101805461238090613e55565b80601f01602080910402602001604051908101604052809291908181526020018280546123ac90613e55565b80156123f75780601f106123ce576101008083540402835291602001916123f7565b820191905f5260205f20905b8154815290600101906020018083116123da57829003601f168201915b5050505050908060020154908060030154908060040154905085565b5f5f5f90505b6002805490508110156124f6575f6124d3846002848154811061243f5761243e6144f4565b5b905f5260205f2001805461245290613e55565b80601f016020809104026020016040519081016040528092919081815260200182805461247e90613e55565b80156124c95780601f106124a0576101008083540402835291602001916124c9565b820191905f5260205f20905b8154815290600101906020018083116124ac57829003601f168201915b5050505050612755565b5050905080156124e8576001925050506124fb565b508080600101915050612419565b505f90505b919050565b612508612e1c565b5f6004836040516125199190613fb5565b90815260200160405180910390205f01805461253490613e55565b905011612576576040517f08c379a000000000000000000000000000000000000000000000000000000000815260040161256d90614815565b60405180910390fd5b6004826040516125869190613fb5565b90815260200160405180910390206040518060600160405290815f820180546125ae90613e55565b80601f01602080910402602001604051908101604052809291908181526020018280546125da90613e55565b80156126255780601f106125fc57610100808354040283529160200191612625565b820191905f5260205f20905b81548152906001019060200180831161260857829003601f168201915b5050505050815260200160018201805461263e90613e55565b80601f016020809104026020016040519081016040528092919081815260200182805461266a90613e55565b80156126b55780601f1061268c576101008083540402835291602001916126b5565b820191905f5260205f20905b81548152906001019060200180831161269857829003601f168201915b505050505081526020016002820180546126ce90613e55565b80601f01602080910402602001604051908101604052809291908181526020018280546126fa90613e55565b80156127455780601f1061271c57610100808354040283529160200191612745565b820191905f5260205f20905b81548152906001019060200180831161272857829003601f168201915b5050505050815250509050919050565b5f5f5f5f60035f8773ffffffffffffffffffffffffffffffffffffffff1673ffffffffffffffffffffffffffffffffffffffff1681526020019081526020015f20856040516127a49190613fb5565b908152602001604051809103902090505f8160030154036127ce575f5f5f93509350935050612814565b5f8160030154426127df9190614228565b9050808260040154116127f2575f612803565b8082600401546128029190614228565b5b93505f841194508160020154925050505b9250925092565b3373ffffffffffffffffffffffffffffffffffffffff167f000000000000000000000000000000000000000000000000000000000000000073ffffffffffffffffffffffffffffffffffffffff16146128a9576040517f08c379a00000000000000000000000000000000000000000000000000000000081526004016128a090613ef5565b60405180910390fd5b5f6004846040516128ba9190613fb5565b90815260200160405180910390205f0180546128d590613e55565b905014612917576040517f08c379a000000000000000000000000000000000000000000000000000000000815260040161290e9061487d565b60405180910390fd5b6040518060600160405280848152602001838152602001828152506004846040516129429190613fb5565b90815260200160405180910390205f820151815f0190816129639190614425565b5060208201518160010190816129799190614425565b50604082015181600201908161298f9190614425565b50905050600583908060018154018082558091505060019003905f5260205f20015f9091909190915090816129c49190614425565b50505050565b3373ffffffffffffffffffffffffffffffffffffffff167f000000000000000000000000000000000000000000000000000000000000000073ffffffffffffffffffffffffffffffffffffffff1614612a58576040517f08c379a0000000000000000000000000000000000000000000000000000000008152600401612a4f90613ef5565b60405180910390fd5b5f600184604051612a699190613fb5565b90815260200160405180910390206001015414612abb576040517f08c379a0000000000000000000000000000000000000000000000000000000008152600401612ab2906148e5565b60405180910390fd5b5f670de0b6b3a764000083612ad091906140c8565b9050604051806060016040528085815260200182815260200183815250600185604051612afd9190613fb5565b90815260200160405180910390205f820151815f019081612b1e9190614425565b50602082015181600101556040820151816002019080519060200190612b45929190612e7a565b50905050600284908060018154018082558091505060019003905f5260205f20015f909190919091509081612b7a9190614425565b507f887bf5af44ee75f1031fb7584e74b040d100e90e9dac633e8b334149d83233518482604051612bac9291906131ef565b60405180910390a150505050565b612bc2612ed1565b5f5f60035f3373ffffffffffffffffffffffffffffffffffffffff1673ffffffffffffffffffffffffffffffffffffffff1681526020019081526020015f2084604051612c0f9190613fb5565b908152602001604051809103902090505f816003015403612c65576040517f08c379a0000000000000000000000000000000000000000000000000000000008152600401612c5c90614973565b60405180910390fd5b5f816003015442612c769190614228565b905080826004015411612c89575f612c9a565b808260040154612c999190614228565b5b92508183816040518060a00160405290815f82015f9054906101000a900473ffffffffffffffffffffffffffffffffffffffff1673ffffffffffffffffffffffffffffffffffffffff1673ffffffffffffffffffffffffffffffffffffffff168152602001600182018054612d0e90613e55565b80601f0160208091040260200160405190810160405280929190818152602001828054612d3a90613e55565b8015612d855780601f10612d5c57610100808354040283529160200191612d85565b820191905f5260205f20905b815481529060010190602001808311612d6857829003601f168201915b5050505050815260200160028201548152602001600382015481526020016004820154815250509150935093505050915091565b5f5f612dc3611788565b90506402540be40081612dd691906140c8565b670de0b6b3a764000084612dea91906140c8565b612df49190614136565b915050919050565b6040518060600160405280606081526020015f8152602001606081525090565b60405180606001604052806060815260200160608152602001606081525090565b508054612e4990613e55565b5f825580601f10612e5a5750612e77565b601f0160209004905f5260205f2090810190612e769190612f12565b5b50565b828054828255905f5260205f20908101928215612ec0579160200282015b82811115612ebf578251829081612eaf9190614425565b5091602001919060010190612e98565b5b509050612ecd9190612f2d565b5090565b6040518060a001604052805f73ffffffffffffffffffffffffffffffffffffffff168152602001606081526020015f81526020015f81526020015f81525090565b5b80821115612f29575f815f905550600101612f13565b5090565b5b80821115612f4c575f8181612f439190612e3d565b50600101612f2e565b5090565b5f73ffffffffffffffffffffffffffffffffffffffff82169050919050565b5f819050919050565b5f612f92612f8d612f8884612f50565b612f6f565b612f50565b9050919050565b5f612fa382612f78565b9050919050565b5f612fb482612f99565b9050919050565b612fc481612faa565b82525050565b5f602082019050612fdd5f830184612fbb565b92915050565b5f604051905090565b5f5ffd5b5f5ffd5b5f5ffd5b5f5ffd5b5f601f19601f8301169050919050565b7f4e487b71000000000000000000000000000000000000000000000000000000005f52604160045260245ffd5b61304282612ffc565b810181811067ffffffffffffffff821117156130615761306061300c565b5b80604052505050565b5f613073612fe3565b905061307f8282613039565b919050565b5f67ffffffffffffffff82111561309e5761309d61300c565b5b6130a782612ffc565b9050602081019050919050565b828183375f83830152505050565b5f6130d46130cf84613084565b61306a565b9050828152602081018484840111156130f0576130ef612ff8565b5b6130fb8482856130b4565b509392505050565b5f82601f83011261311757613116612ff4565b5b81356131278482602086016130c2565b91505092915050565b5f6020828403121561314557613144612fec565b5b5f82013567ffffffffffffffff81111561316257613161612ff0565b5b61316e84828501613103565b91505092915050565b5f81519050919050565b5f82825260208201905092915050565b8281835e5f83830152505050565b5f6131a982613177565b6131b38185613181565b93506131c3818560208601613191565b6131cc81612ffc565b840191505092915050565b5f819050919050565b6131e9816131d7565b82525050565b5f6040820190508181035f830152613207818561319f565b905061321660208301846131e0565b9392505050565b5f60ff82169050919050565b6132328161321d565b811461323c575f5ffd5b50565b5f8135905061324d81613229565b92915050565b5f5f5f6060848603121561326a57613269612fec565b5b5f84013567ffffffffffffffff81111561328757613286612ff0565b5b61329386828701613103565b93505060206132a48682870161323f565b92505060406132b58682870161323f565b9150509250925092565b5f81519050919050565b5f82825260208201905092915050565b5f819050602082019050919050565b5f82825260208201905092915050565b5f61330282613177565b61330c81856132e8565b935061331c818560208601613191565b61332581612ffc565b840191505092915050565b613339816131d7565b82525050565b5f81519050919050565b5f82825260208201905092915050565b5f819050602082019050919050565b5f61337383836132f8565b905092915050565b5f602082019050919050565b5f6133918261333f565b61339b8185613349565b9350836020820285016133ad85613359565b805f5b858110156133e857848403895281516133c98582613368565b94506133d48361337b565b925060208a019950506001810190506133b0565b50829750879550505050505092915050565b5f606083015f8301518482035f86015261341482826132f8565b91505060208301516134296020860182613330565b50604083015184820360408601526134418282613387565b9150508091505092915050565b5f61345983836133fa565b905092915050565b5f602082019050919050565b5f613477826132bf565b61348181856132c9565b935083602082028501613493856132d9565b805f5b858110156134ce57848403895281516134af858261344e565b94506134ba83613461565b925060208a01995050600181019050613496565b50829750879550505050505092915050565b5f6020820190508181035f8301526134f8818461346d565b905092915050565b5f5f6040838503121561351657613515612fec565b5b5f83013567ffffffffffffffff81111561353357613532612ff0565b5b61353f85828601613103565b92505060206135508582860161323f565b9150509250929050565b5f60408201905061356d5f8301856131e0565b61357a60208301846131e0565b9392505050565b5f6060820190508181035f830152613599818661319f565b905081810360208301526135ad818561319f565b905081810360408301526135c1818461319f565b9050949350505050565b6135d4816131d7565b81146135de575f5ffd5b50565b5f813590506135ef816135cb565b92915050565b5f6020828403121561360a57613609612fec565b5b5f613617848285016135e1565b91505092915050565b5f6020820190508181035f830152613638818461319f565b905092915050565b5f82825260208201905092915050565b5f61365a8261333f565b6136648185613640565b93508360208202850161367685613359565b805f5b858110156136b157848403895281516136928582613368565b945061369d8361337b565b925060208a01995050600181019050613679565b50829750879550505050505092915050565b5f81519050919050565b5f82825260208201905092915050565b5f819050602082019050919050565b5f606083015f8301518482035f86015261370682826132f8565b9150506020830151848203602086015261372082826132f8565b9150506040830151848203604086015261373a82826132f8565b9150508091505092915050565b5f61375283836136ec565b905092915050565b5f602082019050919050565b5f613770826136c3565b61377a81856136cd565b93508360208202850161378c856136dd565b805f5b858110156137c757848403895281516137a88582613747565b94506137b38361375a565b925060208a0199505060018101905061378f565b50829750879550505050505092915050565b5f6080820190508181035f8301526137f1818761319f565b905061380060208301866131e0565b81810360408301526138128185613650565b905081810360608301526138268184613766565b905095945050505050565b5f61383b82612f50565b9050919050565b61384b81613831565b82525050565b5f6020820190506138645f830184613842565b92915050565b5f60208201905061387d5f8301846131e0565b92915050565b5f6020820190508181035f83015261389b8184613766565b905092915050565b6138ac81613831565b81146138b6575f5ffd5b50565b5f813590506138c7816138a3565b92915050565b5f602082840312156138e2576138e1612fec565b5b5f6138ef848285016138b9565b91505092915050565b5f81519050919050565b5f82825260208201905092915050565b5f819050602082019050919050565b5f61392c8383613330565b60208301905092915050565b5f602082019050919050565b5f61394e826138f8565b6139588185613902565b935061396383613912565b805f5b8381101561399357815161397a8882613921565b975061398583613938565b925050600181019050613966565b5085935050505092915050565b5f6040820190508181035f8301526139b88185613650565b905081810360208301526139cc8184613944565b90509392505050565b5f5f604083850312156139eb576139ea612fec565b5b5f6139f8858286016138b9565b925050602083013567ffffffffffffffff811115613a1957613a18612ff0565b5b613a2585828601613103565b9150509250929050565b5f60a082019050613a425f830188613842565b8181036020830152613a54818761319f565b9050613a6360408301866131e0565b613a7060608301856131e0565b613a7d60808301846131e0565b9695505050505050565b5f8115159050919050565b613a9b81613a87565b82525050565b5f602082019050613ab45f830184613a92565b92915050565b5f606083015f8301518482035f860152613ad482826132f8565b91505060208301518482036020860152613aee82826132f8565b91505060408301518482036040860152613b0882826132f8565b9150508091505092915050565b5f6020820190508181035f830152613b2d8184613aba565b905092915050565b5f606082019050613b485f830186613a92565b613b5560208301856131e0565b613b6260408301846131e0565b949350505050565b5f5f5f60608486031215613b8157613b80612fec565b5b5f84013567ffffffffffffffff811115613b9e57613b9d612ff0565b5b613baa86828701613103565b935050602084013567ffffffffffffffff811115613bcb57613bca612ff0565b5b613bd786828701613103565b925050604084013567ffffffffffffffff811115613bf857613bf7612ff0565b5b613c0486828701613103565b9150509250925092565b5f67ffffffffffffffff821115613c2857613c2761300c565b5b602082029050602081019050919050565b5f5ffd5b5f613c4f613c4a84613c0e565b61306a565b90508083825260208201905060208402830185811115613c7257613c71613c39565b5b835b81811015613cb957803567ffffffffffffffff811115613c9757613c96612ff4565b5b808601613ca48982613103565b85526020850194505050602081019050613c74565b5050509392505050565b5f82601f830112613cd757613cd6612ff4565b5b8135613ce7848260208601613c3d565b91505092915050565b5f5f5f60608486031215613d0757613d06612fec565b5b5f84013567ffffffffffffffff811115613d2457613d23612ff0565b5b613d3086828701613103565b9350506020613d41868287016135e1565b925050604084013567ffffffffffffffff811115613d6257613d61612ff0565b5b613d6e86828701613cc3565b9150509250925092565b613d8181613831565b82525050565b5f60a083015f830151613d9c5f860182613d78565b5060208301518482036020860152613db482826132f8565b9150506040830151613dc96040860182613330565b506060830151613ddc6060860182613330565b506080830151613def6080860182613330565b508091505092915050565b5f6040820190508181035f830152613e128185613d87565b9050613e2160208301846131e0565b9392505050565b7f4e487b71000000000000000000000000000000000000000000000000000000005f52602260045260245ffd5b5f6002820490506001821680613e6c57607f821691505b602082108103613e7f57613e7e613e28565b5b50919050565b7f4f6e6c7920636f6e7472616374206f776e65722063616e2063616c6c207468695f8201527f7300000000000000000000000000000000000000000000000000000000000000602082015250565b5f613edf602183613181565b9150613eea82613e85565b604082019050919050565b5f6020820190508181035f830152613f0c81613ed3565b9050919050565b7f4e6f207265656e7472616e6379000000000000000000000000000000000000005f82015250565b5f613f47600d83613181565b9150613f5282613f13565b602082019050919050565b5f6020820190508181035f830152613f7481613f3b565b9050919050565b5f81905092915050565b5f613f8f82613177565b613f998185613f7b565b9350613fa9818560208601613191565b80840191505092915050565b5f613fc08284613f85565b915081905092915050565b7f506c616e20646f6573206e6f74206578697374000000000000000000000000005f82015250565b5f613fff601383613181565b915061400a82613fcb565b602082019050919050565b5f6020820190508181035f83015261402c81613ff3565b9050919050565b7f496e76616c6964206475726174696f6e000000000000000000000000000000005f82015250565b5f614067601083613181565b915061407282614033565b602082019050919050565b5f6020820190508181035f8301526140948161405b565b9050919050565b7f4e487b71000000000000000000000000000000000000000000000000000000005f52601160045260245ffd5b5f6140d2826131d7565b91506140dd836131d7565b92508282026140eb816131d7565b915082820484148315176141025761410161409b565b5b5092915050565b7f4e487b71000000000000000000000000000000000000000000000000000000005f52601260045260245ffd5b5f614140826131d7565b915061414b836131d7565b92508261415b5761415a614109565b5b828204905092915050565b5f6141708261321d565b915061417b8361321d565b9250828203905060ff8111156141945761419361409b565b5b92915050565b7f4554482073656e742069732062656c6f77207265717569726564206d696e20645f8201527f756520746f20736c697070616765000000000000000000000000000000000000602082015250565b5f6141f4602e83613181565b91506141ff8261419a565b604082019050919050565b5f6020820190508181035f830152614221816141e8565b9050919050565b5f614232826131d7565b915061423d836131d7565b92508282039050818111156142555761425461409b565b5b92915050565b5f614265826131d7565b9150614270836131d7565b92508282019050808211156142885761428761409b565b5b92915050565b5f819050815f5260205f209050919050565b5f6020601f8301049050919050565b5f82821b905092915050565b5f600883026142ea7fffffffffffffffffffffffffffffffffffffffffffffffffffffffffffffffff826142af565b6142f486836142af565b95508019841693508086168417925050509392505050565b5f61432661432161431c846131d7565b612f6f565b6131d7565b9050919050565b5f819050919050565b61433f8361430c565b61435361434b8261432d565b8484546142bb565b825550505050565b5f5f905090565b61436a61435b565b614375818484614336565b505050565b5b818110156143985761438d5f82614362565b60018101905061437b565b5050565b601f8211156143dd576143ae8161428e565b6143b7846142a0565b810160208510156143c6578190505b6143da6143d2856142a0565b83018261437a565b50505b505050565b5f82821c905092915050565b5f6143fd5f19846008026143e2565b1980831691505092915050565b5f61441583836143ee565b9150826002028217905092915050565b61442e82613177565b67ffffffffffffffff8111156144475761444661300c565b5b6144518254613e55565b61445c82828561439c565b5f60209050601f83116001811461448d575f841561447b578287015190505b614485858261440a565b8655506144ec565b601f19841661449b8661428e565b5f5b828110156144c25784890151825560018201915060208501945060208101905061449d565b868310156144df57848901516144db601f8916826143ee565b8355505b6001600288020188555050505b505050505050565b7f4e487b71000000000000000000000000000000000000000000000000000000005f52603260045260245ffd5b5f815461452d81613e55565b6145378186613f7b565b9450600182165f8114614551576001811461456657614598565b60ff1983168652811515820286019350614598565b61456f8561428e565b5f5b8381101561459057815481890152600182019150602081019050614571565b838801955050505b50505092915050565b5f6145ac8284614521565b915081905092915050565b5f6145c1826131d7565b91507fffffffffffffffffffffffffffffffffffffffffffffffffffffffffffffffff82036145f3576145f261409b565b5b600182019050919050565b5f69ffffffffffffffffffff82169050919050565b61461c816145fe565b8114614626575f5ffd5b50565b5f8151905061463781614613565b92915050565b5f819050919050565b61464f8161463d565b8114614659575f5ffd5b50565b5f8151905061466a81614646565b92915050565b5f8151905061467e816135cb565b92915050565b5f5f5f5f5f60a0868803121561469d5761469c612fec565b5b5f6146aa88828901614629565b95505060206146bb8882890161465c565b94505060406146cc88828901614670565b93505060606146dd88828901614670565b92505060806146ee88828901614629565b9150509295509295909350565b7f496e76616c6964207072696365000000000000000000000000000000000000005f82015250565b5f61472f600d83613181565b915061473a826146fb565b602082019050919050565b5f6020820190508181035f83015261475c81614723565b9050919050565b7f4e6f2061637469766520737562736372697074696f6e000000000000000000005f82015250565b5f614797601683613181565b91506147a282614763565b602082019050919050565b5f6020820190508181035f8301526147c48161478b565b9050919050565b7f4665617475726520646f6573206e6f74206578697374000000000000000000005f82015250565b5f6147ff601683613181565b915061480a826147cb565b602082019050919050565b5f6020820190508181035f83015261482c816147f3565b9050919050565b7f4665617475726520616c726561647920657869737473000000000000000000005f82015250565b5f614867601683613181565b915061487282614833565b602082019050919050565b5f6020820190508181035f8301526148948161485b565b9050919050565b7f506c616e20616c726561647920657869737473000000000000000000000000005f82015250565b5f6148cf601383613181565b91506148da8261489b565b602082019050919050565b5f6020820190508181035f8301526148fc816148c3565b9050919050565b7f4e6f2061637469766520737562736372697074696f6e20666f722074686973205f8201527f706c616e00000000000000000000000000000000000000000000000000000000602082015250565b5f61495d602483613181565b915061496882614903565b604082019050919050565b5f6020820190508181035f83015261498a81614951565b905091905056fea264697066735822122076206796ff6e48e7fc5d4335c5fd73aeae705dad9b140fa4b1cd0769a2bad43464736f6c634300081d0033","linkReferences":{}},"methodIdentifiers":{"autoCleanup()":"9b6ac566","cancelSubscription(string)":"b4a5dc65","checkSubscription(string)":"f7cccd51","createFeature(string,string,string)":"eb46988c","createPlan(string,uint256,string[])":"eb8679c7","featureIds(uint256)":"630ef009","features(string)":"6248c8c4","getEthAmountFromUsd(uint256)":"ffd7db56","getFeature(string)":"ca80c029","getLatestPrice()":"8e15f473","getPlanDetails(string)":"7f71bc3a","getSubscriptionCost(string,uint8)":"4d055134","getSubscriptionStatus(address,string)":"e97a3f43","getUserActiveSubscriptions(address)":"af6c0b64","hasActiveSubscription(address)":"bebe4a57","owner()":"8da5cb5b","planNames(uint256)":"8de2f003","plans(string)":"2875b866","s_priceFeed()":"0ec3b027","subscribe(string,uint8,uint8)":"42440dc5","subscriptions(address,string)":"bcc7a219","viewFeatures()":"a6e7ae19","viewPlans()":"48e9807f","withdraw()":"3ccfd60b"},"id":17}